:020000040800F2
:1000000080180020850200083DAE00088F0200081D
:1000100009AD0008E91500087BF4000800000000A5
:10002000000000000000000000000000A90100081E
:100030006D17000800000000FD010008B7EB000884
:10004000B5020008B5020008B5020008B5020008B4
:10005000B5020008B5020008B5020008B5020008A4
:10006000ED180008B5020008B5020008B502000846
:10007000C1160008D1160008E1160008F91600089C
:10008000B5020008B5020008B5020008B502000874
:10009000B5020008B5020008B5020008F71800080C
:1000A000B5020008B5020008B5020008B502000854
:1000B000B5020008B502000800000000B502000803
:1000C000B5020008B5020008B5020008B502000834
:1000D000B5020008B5020008B5020008B502000824
:1000E000E1180008C5B6000800000000000000008C
:1000F0000000000000000000000000000000000000
:1001000000000000B502000800000000B502000871
:10011000B502000800000000B50200080000000061
:10012000B5020008B5020008B5020008B5020008D3
:10013000B5020008B5020008B50200080000000082
:10014000B5020008B5020008B5020008B5020008B3
:10015000B5020008B5020008116E0008B5020008DB
:10016000B5020008B5020008B50200080000000052
:1001700000000000B50200080000000000000000C0
:10018000B5020008B5020008B5020008B502000873
:10019000B5020008DFF80CD000F0BEFC00480047B4
:1001A0001D170108801800202B4B1968086800F003
:1001B00058B880F30988BFF36F8F4FF0000080F3C9
:1001C000118870470000000006480068006880F34E
:1001D000088862B661B6BFF34F8FBFF36F8F00DF41
:1001E00000BF00BF08ED00E0DFF80C00016841F43B
:1001F00070010160704700BF88ED00E0EFF30980F7
:10020000BFF36F8F144B1A681EF0100F08BF20ED5C
:10021000108A20E9F04F106008B44FF0500080F3CE
:100220001188BFF34F8FBFF36F8F12F0DFFF4FF0D6
:10023000000080F3118808BC1968086800F016B83F
:100240001EF0100F08BF00F016B880F30988BFF346
:100250006F8F704700BF00BF30000020EFF30580B4
:10026000704730C8B0E8C04FFFF7A3BF30C8B0E850
:10027000C04FFFF7E5BFB0EC088AB0EC08CAFFF743
:10028000E4BF00000C4880470C480047FEE71EF022
:10029000040F0CBFEFF30880EFF3098021462A46D4
:1002A000334610F029BFFEE7FEE7FEE7FEE7FEE774
:1002B000FEE7FEE7FEE70000A5ED00089501000857
:1002C0002DE9F05F0546002092469B46884606468B
:1002D000814640241BE0284641464746224600F01E
:1002E00028FB53465A46C01A914110D3114618466E
:1002F000224600F00FFB2D1A67EB01084F462246FD
:100300000120002100F006FB17EB00094E41201EE2
:10031000A4F10104DFDC484631462A46434600F09A
:1003200000B830BCBDE8C09F10B500683C22B0FBEF
:10033000F2F302FB1303B0FBF2F00B60B0FBF2F33D
:1003400002FB1303B0FBF2F018224B60B0FBF2F398
:1003500002FB1303B0FBF2F0021D8B600723B2FB1C
:10036000F3F403FB1422800040F2B55300F66C3026
:100370008A61B0FBF3F2B0FBF3F403FB14004432E8
:1003800080084A61C8613B2802D3920700D0401C14
:100390000022074C13460A61E25C824203D8801AAD
:1003A0005B1C0B61F8E7401CC860084610BD0000EC
:1003B0003843010838B5D0E90221491E01EB41015B
:1003C00002EBC1014268C1EB011102EB810102683D
:1003D000C1EB011102EB8102D0E9043101EB4101D3
:1003E00003EB81013023A1F5527191FBF3F4174D1A
:1003F0006C4302EBC41291FBF3F403FB1411009263
:100400001A2902DB124B1A4400920C2291FBF2F3E0
:10041000104C6343009C04EBC313009391FBF2F375
:1004200002FB13110C4A08E0491E40F2A324535C5E
:100430006343009C04EBC31300930029F4DC0146E2
:100440006846FFF771FF009838BD00003F0C0F00B1
:100450008051010067C203004443010840EA0103E0
:100460009B0703D009E008C9121F08C0042AFAD26A
:1004700003E011F8013B00F8013B521EF9D270472E
:10048000D2B201E000F8012B491EFBD270470022D6
:10049000F6E710B513460A4604461946FFF7F0FF83
:1004A000204610BD421C10F8011B0029FBD1801A08
:1004B000704730B504460020034600E05B1C9342C1
:1004C00003D2E05CCD5C401BF8D030BD2DE9FE4F7F
:1004D000804681EA0300C00F0C46009021F00041E5
:1004E00023F00045B8EB0200A94105D24046214661
:1004F00090461C460B46024623F00040104347D06E
:10050000270DC7F30A00C3F30A510290401A019065
:1005100040286BDAC3F3130040F4801B0098924626
:1005200020B10023D2EB030A63EB0B0B0198594671
:10053000C0F14002504600F0EDF906460D46504627
:100540005946019A00F005FA10EB080061410024B9
:1005500087EA115284EAE7731A4340D0009A62B3E3
:10056000019A012A4FEA075215DC001B61EB0201D8
:100570004FF0004202EA0752CDE90042001C41F56B
:10058000801132462B4600F005FA03B000F045B862
:1005900040462146F9E7001B61EB0201001C41F5D2
:1005A000801300185B412018A2F5001747EB0301E8
:1005B00040EAD570B6196D4111E06D084FEA360674
:1005C00045EAC0754FEA0752001B61EB0201001CAF
:1005D00041F5801149084FEA300000195141324677
:1005E0002B4603B000F01CB800F0C5B900980122FA
:1005F00040000023D0EB020263EBE0730098214639
:100600004FEAE074B8EB000061EB0401E9E783F026
:1006100000435BE781F0004158E730BCBDE8C08F84
:1006200030BCBDE8C04FFFF7DFBF2DE9FE4F81EAC8
:10063000030404F0004421F0004100944FF0000B4B
:1006400023F0004350EA01045ED052EA03045BD079
:10065000C3F30A54C1F30A552C44A4F2F3340194B1
:10066000A0FB0254C1F3130141F48011C3F313033F
:1006700043F4801301FB024400FB034E840A970AF3
:1006800044EA815447EA8357A4FB076802958D0A20
:1006900005FB07854FEA932C04FB0C542705029DAC
:1006A0004FEA065847EA1637B5EB08056EEB070C1C
:1006B000870E920E47EA811742EA8312A7FB0201D6
:1006C000B6EB0B0164EB00042B0D43EA0C335E1810
:1006D00044EB1C50DA465146E7FB0201C5F3130414
:1006E0004FEA0B3343EA14534FEA0432019C43EAC6
:1006F0000603A4F10C040294009CCDE900B400F0C0
:1007000049F903B000F003B800200146F9E730BC16
:10071000BDE8C08F2DE9F04D81EA030404F0004BE1
:1007200021F0004514464FF0000A23F0004150EA42
:10073000050220D054EA01021DD0C5F30A57024633
:10074000C5F31303C1F31300C1F30A5640F4801537
:1007500043F48013A7EB0608101BD64608F2FD38B9
:1007600073EB050002D308F1010801E092185B4128
:10077000B8F1000F03DA00200146BDE8F08D00203B
:100780004FF48011064684460EE0171B73EB0507F5
:1007900005D3121B63EB050306434CEA010C490821
:1007A0004FEA300092185B4150EA0107EDD152EA5E
:1007B000030012D082EA040083EA0501084305D051
:1007C000101BAB4106D20122002306E000224FF0AD
:1007D000004302E06FF0010253101AEB06004CEBED
:1007E000085110EB0A0041EB0B01BDE8F04D00F0A1
:1007F000C2B80EB5C10F80EAE0700844CA070021F4
:1008000040F233438DE80E000A460B4600F0C2F872
:1008100003B000BD0EB540F2334102910021CDE995
:1008200000110A460B4600F0B5F803B000BDC1F355
:100830000A5210B5C1F3130140F2FF3341F48011A5
:100840009A4201DA002010BD40F233439A42A2F2EC
:10085000334203DC524200F06CF810BD904010BDF2
:1008600000F0004230F000400AD0C10D01F5607187
:10087000C0F3160042EA0151C20840071143704715
:10088000002001467047000030B5041E71F10004DD
:1008900004DB4FF00044404264EB0101141E73F18D
:1008A000000405DB1C464FF00043524263EB040397
:1008B0008B4208BF824230BD30B5041E71F1000486
:1008C00004DB4FF00044404264EB0101141E73F15D
:1008D000000405DB1C464FF00043524263EB040367
:1008E000994208BF904230BD30B50B46014600200A
:1008F0002022012409E021FA02F59D4205D303FAE2
:1009000002F5491B04FA02F52844151EA2F1010262
:10091000F1DC30BD202A04DB203A00FA02F100208D
:1009200070479140C2F1200320FA03F3194390402D
:100930007047202A04DB203A21FA02F00021704798
:1009400021FA02F3D040C2F1200291400843194637
:100950007047202A06DBCB17203A41FA02F043EA1F
:10096000E07306E041FA02F3D040C2F12002914068
:1009700008431946704710B5141E73F1000408DAD5
:10098000401C41F1000192185B411A4301D120F053
:10099000010010BD2DE9F04D92469B4611B1B1FA10
:1009A00081F202E0B0FA80F220329046FFF7B2FF07
:1009B00004460F4640EA0A0041EA0B0153465A46F4
:1009C000084313D0114653EA010019D0C8F1400280
:1009D0005046FFF7AEFF05460E4650465946424682
:1009E000FFF798FF084305D0012004E02046394670
:1009F000BDE8F08D0020054346EAE0762C433743FE
:100A00000A986305E40AA0EB08000022FD0A44EA04
:100A100047540A3002D500200146E9E701051019C4
:100A20006941DDE9084500196941BDE8F04DA2E7DB
:100A300070B521F0004303430CD0C1F30A550024E4
:100A4000D5EB040564EB0403D617AD1AB34102DB02
:100A50000020014670BD201841EB025170BD00001E
:100A60002DE9F041054621F000400C46284309D00D
:100A7000C4F30A5040F23341884205DD284621463E
:100A8000BDE8F0812846FBE740F2FE31884210DCE9
:100A90000CDB4FEA043040EA155050EA053105D02E
:100AA000104804F0004101430020E9E7002001461E
:100AB000E6E7A0F233404642C6F14002284621460E
:100AC000FFF728FF07468846284621463246FFF7AB
:100AD00030FF43463A46FFF74EFF3246BDE8F0414D
:100AE000FFF718BF0000F03FC1F30A52C1F3130132
:100AF00040F2FF3341F480119A4202DA00200146AD
:100B0000704740F233439A42A2F2334202DC52422F
:100B1000FFF70FBFFFF7FEBE064C074D06E0E0688B
:100B200040F0010394E8070098471034AC42F6D334
:100B3000FFF734FB68440108884401082DE9F04DB3
:100B400000231A461B1A8A4103DB00200146BDE838
:100B5000F08DC1F30A52C1F3130141F480154FF037
:100B6000000BD10702D100186D41521E0027044628
:100B700040F2FF11384601EB620A3E4680460246CB
:100B800000204FF48011FFF7D4FEC2197141BB1849
:100B900046EB0100B4EB030C75EB000C04D3E41A34
:100BA00065EB000517460E46241908F101006D415A
:100BB00080463428E3DDF91946EB0600091BA841FD
:100BC00003D24FF0FF32134601E0002213461BEB25
:100BD000070046EB0A51BDE8F04DFFF7CCBE70B5FB
:100BE0008C1810F8015B15F0070301D110F8013BD8
:100BF0002A1106D110F8012B03E010F8016B01F85F
:100C0000016B5B1EF9D12B0705D40023521E0DD4B6
:100C100001F8013BFAE710F8013BCB1A921C03E004
:100C200013F8015B01F8015B521EF9D5A142D8D33C
:100C3000002070BD2DE9F04104460D460027B8465E
:100C400000262068806800F00C0008B1012000E058
:100C50000020002873D02068C06800F00070B0F158
:100C6000007F1FD1E06901281CD1A069012819D19A
:100C700001250EE0334886420AD3E06D40F01000B3
:100C8000E065206E40F0010020660120BDE8F081A3
:100C9000761C20680068C0F380100028EAD040204D
:100CA00021680860022D13D02068806800F00400DD
:100CB00004280DD12068806800F0020040B9206847
:100CC0008168214A114041F01001816000BF00BFDE
:100CD000012D10D02068806800F0080008280AD193
:100CE0002068806800F0020028B92068806840F021
:100CF000200021688860022D03D0032D03D10C272A
:100D000003E0082701E0042700BF00BF02F0C0FC99
:100D100080460FE002F0BCFCA0EB0800052809D9D2
:100D2000E06D40F01000E065206E40F001002066AC
:100D30000120ABE72068806838400028EAD1002015
:100D4000A4E700000000340AC0FFFF7F70B504462E
:100D500000252068806800F00300012806D1206883
:100D6000006800F0010008B1012000E0002080B31D
:100D70002068806800F00D00012800D100E000200C
:100D800050B120688168174A1140891C816000BFFA
:100D900003202168086009E0E06D40F01000E06584
:100DA000206E40F001002066012070BD02F070FC52
:100DB00005460FE002F06CFC401B02280AD9E06DEA
:100DC00040F01000E065206E40F001002066012038
:100DD000EBE705E02068806800F001000028E9D119
:100DE0000020E2E7C0FFFF7F38B504460025002061
:100DF00000902068806800F00300012806D1206878
:100E0000006800F0010008B1012000E00020002887
:100E100046D1206880682349084008B9012000E0D5
:100E2000002048B9E06D40F01000E065206E40F011
:100E300001002066012038BD206805F04BFF1A48EC
:100E400000681A49B0FBF1F000EB80004000009010
:100E500002E00098401E009000980028F9D102F0AE
:100E600017FC054616E02068816801F0010111B900
:100E7000206805F02FFF02F00BFC401B022809D967
:100E8000E06D40F01000E065206E40F0010020664B
:100E90000120D0E72068006800F001000028E2D0BF
:100EA0000020C8E73F000080CC02002080841E00A4
:100EB0002DE9F0412DED028B92B006460D46174606
:100EC0009FED4A0AB0EE408A4FF00008012001F081
:100ED000FFFF09F03FFC46480290062003900220E5
:100EE00004907F200590042006900020079002A91E
:100EF000404801F09DF818B1A7213FA00EF0DAFAA2
:100F00003C4801F0BAFC05213A4801F053FC18B9FD
:100F1000384801F05BF80190364801F0FEFC354896
:100F200000F074FF3848008840F6B8314843019912
:100F3000B0FBF1F0386009F00DFC0296062003903A
:100F4000022004907F200590042006900020079046
:100F500002A9284801F06CF818B1D82126A00EF09B
:100F6000A9FA7F21234800F0FBFE00241AE0214863
:100F700001F083FC05211F4801F01CFC80B91D48CD
:100F800001F024F808A941F8240008A850F824002A
:100F90008044184801F0C1FC032001F099FF00E0F3
:100FA00002E0641CAC42E2DB00BF124801F0B5FC79
:100FB000104800F02BFFAC4206D09FED0C0A12B097
:100FC000BDEC028BBDE8F081B8FBF5F000EE100A35
:100FD000B8EE400AB0EE408A9FED0C0AC8EE000A57
:100FE000B0EE608AB0EE480AE9E7000000000000B9
:100FF00001000080C80600202E2E2F5372632F613F
:1010000064632E6300000000AA75FF1F00F07F4597
:1010100070B505462C460CB9012070BD206908B991
:101020000120FAE720786A2808D12669306808B9D3
:101030000120F2E7204631688847EEE70120ECE71F
:101040002DE9F04105460E462C4614B90120BDE8B5
:10105000F081206908B90120F9E70EB90120F6E70F
:1010600020786A2809D12769B86808B90120EEE715
:1010700031462046BA689047E9E70120E7E72DE9C5
:10108000F04105460E462C4614B90120BDE8F0811A
:10109000206908B90120F9E70EB90120F6E72078A8
:1010A0006A2809D12769F86808B90120EEE73146B6
:1010B0002046FA689047E9E70120E7E770B5054662
:1010C0000C4600202060B5F1FF3F01D00DB100BFFC
:1010D00000BF204600F07AF8012800D170BD00BFA3
:1010E00000BF0020FAE770B5064634460CB901206F
:1010F00070BD206908B90120FAE720786A2816D166
:101100002569286908B1686908B90120F0E7204617
:1011100029698847012800D1EAE70A2001F0D8FEB2
:10112000204669698847012800D1E1E701E00120F4
:10113000DEE70020DCE770B50446254600260DB941
:10114000012070BDEE68B06808B90120F9E72846B3
:10115000B1688847012800D1F3E70020F1E72DE9C5
:10116000F04104460E462546002715B90120BDE88A
:10117000F081EF680EB90120F9E7386908B901205C
:10118000F5E7314628463A699047012800D1EEE755
:101190000020ECE770B505460C4600202060B5F154
:1011A000FF3F01D03DB100BF204600F00BF9012800
:1011B00000D170BD06E0204600F004F9012800D1FE
:1011C000F7E700BF00BF0020F3E700002DE9FC4176
:1011D00004460025442001905A484079012801D155
:1011E000BDE8FC810DF018FC012800D1F8E76A2069
:1011F0005449087001204870D62088700020C870BB
:101200000871487188710120C8714F4888604F4843
:10121000C8604F4808614F484F49086008464A492E
:101220000860002048604748206020680DF0C4FB3B
:101230004848407840B9012301AA122120680DF0E6
:1012400081FC08B10120CBE72068C568286838B95F
:1012500014212068FFF71BF9002020600120BFE760
:10126000206829688847012807D114212068FFF7E2
:101270000EF9002020600120B2E7206886683768F8
:10128000B3EE0A0A87ED010A002000906946206843
:10129000FFF765FF9DF800006A2819D100BF2F48AD
:1012A000006838B1002010F0A1FB804641462CA018
:1012B00010F0B4FB00BF00BF2848006838B1002020
:1012C00010F094FB804641462FA010F0A7FB2AE0C7
:1012D0009DF800006C2819D100BF2048006838B183
:1012E000002010F083FB804641461DA010F096FBC5
:1012F00000BF00BF1948006838B1002010F076FB2D
:101300008046414620A010F089FB0CE000BF134846
:10131000006838B1002010F069FB8046414620A0EB
:1013200010F07CFB00BF0421206806F018FB08B910
:10133000012055E71021206806F0ACFB07F0C0FB48
:1013400000204DE7280B00202C0100208801002000
:101350005001002028020020340100204C0200200F
:10136000257324204C534D2053504920636F6D6DDD
:10137000756E69636174696F6E20737563636573FD
:101380007366756C0A000000257324204D50552D9E
:1013900063686970204C534D3644534D0A00000079
:1013A000257324204C534D2053504920636F6D6D9D
:1013B000756E69636174696F6E204661696C640A59
:1013C0000000000038B5044600250C2000902C4891
:1013D0004079012800D138BD0DF01EFB012800D155
:1013E000F9E76A202649087001204870D6208870E5
:1013F0000020C8700871487188710120C8712148A7
:1014000088602148C86000200861204820490860A1
:1014100008461C4908600020486019482060206880
:101420000DF0CAFA1948007840B901236A46122122
:1014300020680DF087FB08B10120CCE72068C56863
:10144000286838B914212068FFF721F800202060AF
:101450000120C0E7206829688847012807D11421A6
:101460002068FFF714F8002020600120B3E7042172
:10147000206806F074FA08B90120ACE70020AAE75A
:101480003C0B00203C010020D80100202802002055
:101490004401002010B5044605480068C06808B93A
:1014A000012010BD02480068C16820468847F8E75F
:1014B0005C04002038B5002000902B4800780028FC
:1014C00050D12A48006808B9012038BD274908686A
:1014D000804708B10120F8E72448416868468847FA
:1014E0009DF80000242803D09DF80000262825D16F
:1014F00000BF1F48006838B1002010F077FA04469A
:1015000021461CA010F08AFA00BF00BF18480068EE
:1015100048B1002010F06AFA04469DF800202146E8
:101520001DA010F07BFA00BF01200F4908700F4882
:101530002149086021480968486213E000BF0C484F
:10154000006838B1002010F051FA044621461CA072
:1015500010F064FA00BF00201749086002490870C3
:101560000120B2E70020B0E76004002074040020EE
:101570004C020020257324204E4643206368697086
:101580002069326320636F6D6D756E696361746984
:101590006F6E206F6B0A0000257324204E46432097
:1015A000636869702069732070726573656E74205A
:1015B0005B253032585D0A005C0400209C0400204A
:1015C000257324204E464320636869702069326386
:1015D00020636F6D6D756E69636174696F6E2066EF
:1015E00061696C65640A000000BFFEE730B5034620
:1015F0000C46002100BF0BE04800401C34F81000EE
:101600004D0034F8155040EA05401D682860491C1B
:10161000B1EB520FF0D302F0010020B1480034F8D2
:1016200010001D6828801868006830BD30B5044679
:101630000B46002100BF13E013F8210005068800C7
:10164000401C185C45EA00458800801C185C45EA8F
:1016500000208D00ED1C5D5D284325682860491C35
:10166000B1EB920FE8D302F0030030B302F00300B5
:10167000012803D113F821002568287002F0030027
:10168000022808D18800401C185C13F8215040EA59
:1016900005202568288002F0030003280DD188006A
:1016A000401C185C13F8215040EA0520256828806A
:1016B0008800801C185C256828702068006830BD90
:1016C00010B5024801F0C0FA10BD0000500A002019
:1016D00010B5024801F0B8FA10BD0000080A002059
:1016E00010B5034803F02CFD024801F0ADFA10BD1F
:1016F0001C090020E00A002010B5024801F0A4FAFD
:1017000010BD0000980A002030B590F84450012424
:10171000AC40056C6C60046863608468102C04D174
:101720000468A2600468E16003E00468A1600468E2
:10173000E26030BD70B50B480468002534B1E5683F
:10174000686818B1074869680068884706480468EF
:10175000002534B1E568686818B103486968006815
:10176000884770BDA4020020A80200207047000036
:1017700008B535480078A8B901203349087009F048
:1017800071FEC82001F0A4FB304802F00BF848B904
:1017900000BF2F48006810B12EA010F03FF900BF25
:1017A00009F06AF92F48D0F8AC106846884710B1A4
:1017B000022000F0A6F842E000BF2548006820B1F2
:1017C0009DF8001028A010F029F900BF9DF8000036
:1017D00000F0100050B101202749086000BF1C48EC
:1017E000006810B125A010F019F900BF9DF80000A5
:1017F00000F0080070B100201F49086000BF1448C5
:10180000006810B124A010F009F900BF0AF004FF2D
:1018100009F030FD4FF47A7010F048F81148D0F814
:10182000AC106846884710B1022000F06AF800BF8B
:101830000748006810B120A010F0F0F800BF9DF834
:1018400000000028B8D108BD680400204808002026
:101850004C0200204D585F493243315F496E697434
:10186000200D0A009C040020495453746174757360
:1018700020253032580D0A006C0400204465746540
:1018800063746564204E4643204649454C445F528C
:101890004953494E470D0A00446574656374656495
:1018A000204E4643204649454C445F46414C4C49F6
:1018B0004E470D0A0A000000446574656374656450
:1018C000204E4643202020202020202020202020A1
:1018D000202020202020454E440D0A0A0000000050
:1018E00010B54FF4005001F0D1FD10BD10B504202B
:1018F00001F0CCFD10BD10B54FF4807001F0C6FDB5
:1019000010BD28B1012802D0022802D100BF00BFBB
:1019100000BF00BF704700001B48007F012803D0B4
:101920001948007F032811D100BF1848006840F40F
:101930000060164908600846006820F400600860EE
:1019400000BF0846006840F4007008600E48007F41
:10195000022803D00C48007F032811D100BF0B4898
:10196000006840F48050094908600846006820F487
:101970008050086000BF0846006840F4806008603E
:101980000020014908777047A80600200020024087
:1019900000F0010129B10649496941F00401044AF6
:1019A00051610349496941F48031014A51617047ED
:1019B000002002400C4A526922F4FF624FF4FF6398
:1019C00093FAA3F3B3FA83F300FA03F31A43064B33
:1019D0005A611A46526942F002025A611A46526925
:1019E00042F480325A6170470020024010B5044929
:1019F000496941F00101024C61610260436010BD20
:101A00000020024070B5402402460B46074D6D6928
:101A100045F48025054E756172B600BF20CB20C20B
:101A2000651EEDB22C1EF9D162B670BD00200240D9
:101A30005348006900F00200022805D1514840686F
:101A400040F001004F4948604D48006900F008002F
:101A5000082805D14B48406840F0020049494860D9
:101A60004748006900F01000102805D1454840683B
:101A700040F00400434948604148006900F02000FC
:101A8000202805D13F48406840F008003D494860A3
:101A90003B48006900F04000402805D139484068C3
:101AA00040F01000374948603548006900F0800078
:101AB000802805D13348406840F020003149486013
:101AC0002F48006900F48070B0F5807F05D12D4863
:101AD000406840F040002B4948602948006900F404
:101AE0000070B0F5007F05D12648406840F08000C6
:101AF000244948602248006900F48040B0F5804FD6
:101B000005D12048406840F480701E4948601C4858
:101B1000006900F40040B0F5004F05D11948406855
:101B200040F40070174948601548806900F0004093
:101B3000B0F1004F05D11348406840F4806011496E
:101B400048600F48006900F40030B0F5003F0BD149
:101B50000C48406840F400600A49486000BF4FF4F8
:101B600000300749086100BF00BF0548806940F0A8
:101B70000040034988614CF2FA30086100BF7047A9
:101B800000200240A806002070B5044601F080FD48
:101B9000054608E0601C30B101F07AFD401BA04210
:101BA00001D3032070BD3248006900F48030B0F5E5
:101BB000803FEFD02E48006900F00200022847D095
:101BC0002B48006900F00800082841D02848006927
:101BD00000F0100010283BD02548006900F02000DC
:101BE000202835D02248006900F0400040282FD03E
:101BF0001F48006900F08000802829D01C48006937
:101C000000F48070B0F5807F22D01948006900F49C
:101C10000070B0F5007F1BD01548006900F48040CB
:101C2000B0F5804F14D01248006900F40040B0F5C0
:101C3000004F0DD00E48806900F00040B0F1004F19
:101C400006D00B48006900F40030B0F5003F03D126
:101C5000FFF7EEFE0120A5E70548006900F001004E
:101C600020B100BF01200249086100BF002099E7B0
:101C70000020024010B588B04FF4E16408F06AFD1E
:101C80002848019006200290022003907F200490B3
:101C9000042005900020069001A9234800F0C8F90F
:101CA00020B140F2272121A00DF004FC7F211E4825
:101CB00000F056F820B140F22D211CA00DF0FAFBE7
:101CC000194800F0DAFD0521174800F073FD18B936
:101CD000154800F07BF90790134800F01EFE1248EB
:101CE00000F094F80798604340F6B831B0FBF1F08B
:101CF00012490988401A00EB800000010F49223187
:101D000009880E4A1288891A90FBF1F01E3000EE05
:101D1000100AB8EEC00A0A4880ED000A90ED000AE9
:101D200008B010BD000052C7C80600202E2E2F5349
:101D300072632F6D61696E2E63000000A875FF1F2E
:101D40001001002070B504460D4644B10DB10123C9
:101D500000E000231A46A188206801F093FC70BDC2
:101D60002DE9F04104460D460026002700BF94F8F7
:101D70005800012802D10220BDE8F081012084F83A
:101D8000580000BF2046FEF7E1FF064696BBE06D17
:101D900020F4885040F00200E0652068806820F060
:101DA00080402843216888602068806840F00040B7
:101DB0002168886010E07F1CB7F57A4F0CD3E06D86
:101DC00020F0020040F01000E06500BF002084F821
:101DD000580000BF0120CFE72068806800F0004075
:101DE000B0F1004FE7D0E06D20F0020040F00100BC
:101DF000E06504E0FFE7E06D40F01000E06500BF43
:101E0000002084F8580000BF3046B5E710B50446FE
:101E10000CB9012010BDE06D40F00200E065032127
:101E20002046FEF707FF2068C06840F400102168D4
:101E3000C8602046FEF78AFF206840686FF30A00FA
:101E40002168486040F2FF7021680860206880685F
:101E500020F0A040216888602068806840F0005031
:101E6000216888602068C06800F080202168C86010
:101E70002068C06840F000402168C86020680069A0
:101E80006FF30A00216808612068406900F0804013
:101E9000216848612068806900F078402168886185
:101EA0002068006A00F0F020216808622068406A1B
:101EB00000F0FF20216848622068806A00F0FF205F
:101EC000216888622068006B3B49084021680863EC
:101ED0002068406B38491039084021684863206801
:101EE000806B354910390840216888632068C06BD1
:101EF00040F2DF7188432168C8632068006E2F4973
:101F00000840216808662068406E2C490840216816
:101F100048662068806E29490840216888662068E4
:101F2000C06E264908402168C8662068D0F8A00025
:101F30006FF312002168C1F8A0002068D0F8A40057
:101F40006FF312002168C1F8A4002068D0F8B00037
:101F50006FF312002168C1F8B0002068D0F8B40017
:101F600020F07F102168C1F8B4002068806800F07C
:101F70000300012806D12068006800F0010008B1C4
:101F8000012000E0002038B900BF0D4800680D496D
:101F900008400D49C1F80803204600F01BF8002056
:101FA000206660660021A166E06500BF84F85800E5
:101FB00000BF00BF2EE70000300882E000F0FF0302
:101FC00008030450FFFF00FE0000045001460868AB
:101FD000006C704710B504460749206888420AD152
:101FE0000648C06C20F400500449C86401214FF039
:101FF000904001F071F910BD000004500010024043
:10200000B71DC104640000000000020005000000CC
:102010006E75782D32313A33383A33342C204D6195
:102020007220323020323031390A000000000000C6
:102030002DE9F84305460C46002700200090F6499C
:10204000E068884200D000E000BF00BF95F858006B
:10205000012802D10220BDE8F883012085F858004C
:1020600000BF286804F051FE00287CD16068052874
:102070001AD86068022806D0032807D0042808D0A0
:1020800005280DD108E00C2060600CE01220606093
:1020900009E01820606006E04FF48070606002E0A4
:1020A0000620606000BF00BF2968D4E9002000F46A
:1020B000407C4FF4407898FAA8F8B8FA88F82CFADF
:1020C00008FC01F1300808EB8C0300F01F094FF009
:1020D0001F0808FA09F8D3F800C02CEA080C00F031
:1020E0001F09C2F3846808FA09F84CEA080CC3F81F
:1020F00000C000BF2868806800F00C0008B1012013
:1021000000E0002000283CD1A068B0F1004F0AD1C7
:1021100021680022286804F005FE4FF0004128687D
:1021200004F03AFE08E0A2682168286804F0FAFD8D
:102130000021286804F030FE60692968C968C1F38D
:10214000C101490000FA01F6206904281AD0286864
:102150002268216900F1600C0CEB8103DFF8BC827E
:10216000D3F800C000E0EBE10CEA080C02F0F848FC
:1021700048F0004848EA06084CEA080CC3F800C0DA
:1021800000BFA7E00021286804F0B1FDC0F31200F1
:1021900030B90021286804F0AAFDC0F3846007E08C
:1021A0000021286804F0A3FD90FAA0F0B0FA80F0B6
:1021B0002168C1F3120119B92168C1F3846104E0F7
:1021C000216891FAA1F1B1FA81F1884204D100228B
:1021D0001146286804F0D5FD0121286804F087FD28
:1021E000C0F3120030B90121286804F080FDC0F36B
:1021F000846007E00121286804F079FD90FAA0F0DE
:10220000B0FA80F02168C1F3120119B92168C1F355
:10221000846104E0216891FAA1F1B1FA81F1884268
:1022200004D100220121286804F0ABFD02212868B6
:1022300004F05DFDC0F3120030B90221286804F0FB
:1022400056FDC0F3846007E00221286804F04FFDCA
:1022500090FAA0F0B0FA80F02168C1F3120119B928
:102260002168C1F3846104E0216891FAA1F1B1FA17
:1022700081F1884204D100220221286804F081FD06
:102280000321286804F033FDC0F3120030B90321A4
:10229000286804F02CFDC0F3846007E0032128685F
:1022A00004F025FD90FAA0F0B0FA80F02168C1F3A7
:1022B000120119B92168C1F3846104E0216891FA1F
:1022C000A1F1B1FA81F1884204D1002203212868EA
:1022D00004F057FD2868806800F00300012806D14B
:1022E0002868006800F0010008B1012000E000202B
:1022F00000287CD12868E2682168D0F8B030C1F3AA
:10230000120C23EA0C03C1F3120C02F02009DFF8CF
:10231000108108FA09F80CEA080C43EA0C03C0F82B
:10232000B03000BF3C49E068884274D12368C3F3F1
:1023300012031BB92368C3F3846304E0236893FA90
:10234000A3F3B3FA83F35B1C092B38D82368C3F3D8
:1023500012031BB92368C3F3846304E0236893FA70
:10236000A3F3B3FA83F35B1C4FF0010C0CFA03FCEC
:102370002368C3F312031BB92368C3F3846304E027
:10238000236893FAA3F3B3FA83F35B1C4CEA836CE0
:102390002368C3F312031BB92368C3F3846304E007
:1023A000236893FAA3F3B3FA83F35B1C03EB4303B1
:1023B0004FF0000848EA03534CEA030340E0236867
:1023C000C3F312031BB92368C3F3846304E02368D7
:1023D00093FAA3F3B3FA83F35B1C4FF0010C0CFAEE
:1023E00003FC2368C3F312032BB9236800E07BE0EE
:1023F000C3F3846304E0236893FAA3F3B3FA83F38B
:102400005B1C4CEA836C2368C3F3120353B9236843
:10241000C3F384630BE018E000007F4000F0FF038B
:10242000FFFF0700236893FAA3F3B3FA83F3093B92
:1024300003EB43034FF0007848EA03534CEA0303ED
:102440001946A268286804F06DFC43492068884258
:1024500005D1424804F046FC00F4000098B1404920
:102460002068884205D13D4804F03CFC00F08070B3
:1024700048B13C492068884267D1384804F032FCB2
:1024800000F4800080BB2868806800F00300012809
:1024900006D12868006800F0010008B1012000E0C2
:1024A0000020A0BB00BF2C49206888421DD12E49C6
:1024B0002868884249D1294804F014FC40F40008F7
:1024C0004146264804F057FC284800682849B0FBDC
:1024D000F1F0C0EB0010C000009002E00098401E38
:1024E000009000980028F9D12FE01D49206888420B
:1024F0000ED11D492868884227D1184804F0F2FB04
:1025000040F080784146154804F035FC1DE011E0AC
:1025100014492068884218D113492868884214D188
:102520000E4804F0DFFB40F4800841460B4804F0FD
:1025300022FC0AE0E86D40F02000E865012704E095
:10254000E86D40F02000E865012700BF002085F815
:10255000580000BF38467EE5000052C70003045013
:10256000000084CB0100008000000450CC02002059
:1025700080841E00F8B50446002600250020009047
:102580000CB90120F8BD206918B1606A012800D19A
:1025900000BFE06D30B9204600F0E6F8002020666C
:1025A00084F8580020688168C1F3407131B1206817
:1025B0008168674A1140816000BF00BF206804F055
:1025C0009FFBB8B920688168624A114041F0805190
:1025D000816000BF604800686049B0FBF1F000EB2B
:1025E00080004000009002E00098401E009000989B
:1025F0000028F9D1206804F083FB40B9E06D40F079
:102600001000E065206E40F0010020660126E06DBC
:1026100000F01000002872D1206804F076FB00283A
:10262000F9D1E06D20F4807040F00200E065206890
:10263000806800F00300012806D12068006800F0DF
:10264000010008B1012000E0002050B900BF60681F
:102650004349896821F47C110143414A916000BFDC
:1026600000BFA16BE06941EA4030E1680843A1681E
:102670000843A18C40EA0145606A012803D1208DFE
:10268000401E45EA4045E06A28B1A08D00F4707014
:10269000216B084305432068C0683249084028433D
:1026A0002168C8602068806800F00C0008B1012033
:1026B00000E0002010BB216DA06941EA8031606B11
:1026C00041EA40052068C06844F206018843284377
:1026D0002168C860E06B012812D1206C40F0010134
:1026E000606C0843A16C0843E16C084321680969E8
:1026F00040F2FC72914308432168086106E01FE044
:102700002068006920F00100216808612069012823
:1027100009D12068006B20F00F00216A491E084390
:102720002168086305E02068006B20F00F00216835
:102730000863E06D20F0020040F00100E06504E075
:10274000E06D40F01000E065012630461AE7000019
:10275000C0FFFF5FC0FFFF7FCC02002080841E000F
:102760000003045007C0F0FF10B586B004460F49BF
:102770002068884218D100BF0D48C06C40F400505A
:102780000B49C8640846C06C00F40050009000BFBC
:1027900000BF012001900B2002900020039001A9AE
:1027A0004FF0904000F080FE06B010BD00000450D5
:1027B000001002402DE9F04104460D460027002696
:1027C000B0466069082801D108260CE02068C0687E
:1027D00000F0010030B1E06D40F02000E065012024
:1027E000BDE8F081042600F053FF074612E0681CA4
:1027F00080B125B100F04CFFC01BA8420AD9E06DA2
:1028000040F00400E06500BF002084F8580000BFDD
:102810000320E5E72068006830400028E7D0E06D3D
:1028200040F40070E0652068C06800F4406098B92A
:10283000E06988B92068006800F0080008280BD11A
:10284000E06D20F48070E065E06D00F4805018B910
:10285000E06D40F00100E0652068D0F80C80082EA3
:1028600003D108202168086005E008F4804010B911
:102870000C20216808600020B2E770B504460025EE
:10288000206804F042FA002844D100BF94F85800B0
:10289000012801D1022070BD012084F8580000BF3A
:1028A0002046FEF7A1FA054675BBE06D40F60161D2
:1028B000884340F48070E065E06D20F48010E065AE
:1028C000E06D00F48050B0F5805F04D1206E20F000
:1028D0000600206601E0002020661C2021680860B8
:1028E00000BF002084F8580000BF2068C06800F0D6
:1028F000007028B1E06D20F4005040F48050E06595
:10290000206804F007FA06E0FFE700BF002084F823
:10291000580000E002252846BDE770B504460025B2
:1029200000BF94F85800012801D1022070BD012099
:1029300084F8580000BF03212046FEF77BF90546C6
:1029400055B92046FEF702FA05462DB9E06D20F490
:10295000885040F00100E06500BF002084F8580076
:1029600000BF2846E2E730B503460C461F2100BFF2
:1029700001208840204018B9081EA1F10101F7D1BB
:10298000A2B1082A0DD0102A06D0182A0FD1072983
:1029900001D3012030BD0CE0082901D30120F9E763
:1029A00007E0102901D30120F4E702E001E0012053
:1029B000F0E700BF186844611868806820F01800CC
:1029C00010431D68A8600020E4E72DE9F0410446AB
:1029D0000E4617460025A84600BF207F012802D1D9
:1029E0000220BDE8F0810120207700BF022060773F
:1029F000206A012810D0022815D003281AD10025FA
:102A000004E056F82500216808606D1CBD42F8D32B
:102A10002068D0F800800EE03A4631462046FEF7A6
:102A200005FE804607E03A4631462046FEF7DEFDC9
:102A3000804600E000BF00BF0120607700BF00209B
:102A4000207700BF4046CCE72DE9F04104460E4612
:102A500017460025A84600BF207F012802D102208A
:102A6000BDE8F0810120207700BF02206077206858
:102A7000806840F0010021688860206A012810D039
:102A8000022815D003281AD1002504E056F82500A5
:102A9000216808606D1CBD42F8D32068D0F8008022
:102AA0000EE03A4631462046FEF7C0FD804607E07C
:102AB0003A4631462046FEF799FD804600E000BFC9
:102AC00000BF0120607700BF0020207700BF404694
:102AD000C6E72DE9F84380460D4614461E46002001
:102AE000009004F003078146A40836B12246294627
:102AF0004046FFF76AFF814605E0224629464046E8
:102B0000FFF7A2FF81465FB105EB84013A466846B4
:102B1000FDF7A4FC012269464046FFF756FF8146B7
:102B20004846BDE8F883000010B504460CB9012002
:102B300010BD607F20B900202077204600F036F8D5
:102B400002206077207948B91748216848612068D9
:102B5000806820F018002168886007E02046D4E9EA
:102B60000212FFF700FF08B10120E1E7607920B908
:102B70004FF0FF302168086102E021682069086198
:102B80002068806820F060006169084321688860DF
:102B90002068806820F08000A1690843216888606F
:102BA000012060770020C3E7B71DC10408B5094ABA
:102BB000016891420DD100BF0749896C41F48051F1
:102BC000054A91641146896C01F48051009100BF5F
:102BD00000BF08BD003002400010024003484068BA
:102BE00040F002000149486070470000002004E006
:102BF00070B50446002594F82500022803D004206F
:102C0000E06301251EE02068006820F00E002168C6
:102C100008602068006820F001002168086094F8CE
:102C2000441001208840216C4860012084F8250070
:102C300000BF002084F8240000BFA06B10B1204624
:102C4000A16B8847284670BD70B50446206C0568A6
:102C50002068066894F84410042088402840D0B1C9
:102C600006F00400B8B12068006800F0200028B920
:102C70002068006820F004002168086094F844107F
:102C800004208840216C4860206B00284ED02046EC
:102C9000216B88474AE094F844100220884028407D
:102CA00008B306F00200F0B12068006800F02000D0
:102CB00040B92068006820F00A00216808600120FF
:102CC00084F8250094F8441002208840216C486064
:102CD00000BF002084F8240000BFE06A30B3204623
:102CE000E16A884722E094F8441008208840284090
:102CF000E0B106F00800C8B12068006820F00E00BE
:102D00002168086094F8441001208840216C4860D4
:102D10000120E06384F8250000BF002084F824002F
:102D200000BF606B10B12046616B884770BD00002A
:102D300010B50146002209B9012010BD3B4B0868BF
:102D400098420BD23A4B0868C01A1423B0FBF3F038
:102D5000800048643648083808640AE0334B086845
:102D6000C01A1423B0FBF3F0800048642F480838E1
:102D70000864022081F825000868026847F6F070B0
:102D80008243D1E9020318430B6918434B69184386
:102D90008B691843CB6918430B6A184302430868D0
:102DA00002608868B0F5804F32D0214B083B086C38
:102DB000984217D1D0F8A80091F844400F23A340BF
:102DC00098431B4BA033186091F8443048689840F2
:102DD000174B083BD3F8A8301843154B083BC3F8F2
:102DE000A80015E01148A030006891F844400F2376
:102DF000A34098430D4BA033186091F844304868C5
:102E000098400A4BA0331B681843084BA033186046
:102E10000020C862086348638863C863012081F8A2
:102E20002500002081F8240000BF86E70804024046
:102E3000080002402DE9F04104460D4616461F46A3
:102E40004FF0000800BF94F82400012802D10220AE
:102E5000BDE8F081012084F8240000BF94F825002B
:102E600001282CD1022084F825000020E06320688E
:102E7000006820F00100216808603B463246294680
:102E80002046FEF741FC206B30B12068006840F01E
:102E90000E00216808600BE02068006820F0040044
:102EA000216808602068006840F00A002168086016
:102EB0002068006840F001002168086006E000BF5B
:102EC000002084F8240000BF4FF002084046BFE70E
:102ED00070B5044600F0DCFB06462546681C00B1D0
:102EE0006D1C00BF00F0D4FB801BA842FAD370BD5C
:102EF0002DE9F04104460E460127002500BF3E485B
:102F00000078012802D10220BDE8F08101203A4971
:102F1000087000BF4CF25030FEF736FE0746002F17
:102F200063D1354948603548006800F40070B8B195
:102F30003248006820F40070304908600846006894
:102F400000F4806040B10846006820F480600860AA
:102F500003202949087715E001202749087711E067
:102F60002648006800F4806048B12448006820F4D6
:102F700080602249086002201F49087702E0002093
:102F80001D490877206801280ED16068FEF700FD12
:102F90004CF25030FEF7F8FD07461848406920F023
:102FA0000400164948611EE04FF0FF303060A5680C
:102FB00013E028466168FEF7FDFC4CF25030FEF746
:102FC000E3FD07460D48406940F2FA7188430B491A
:102FD00048610FB1356005E06D1CD4E90201084479
:102FE000A842E6D800BFFEF797FC00BF00200249C8
:102FF000087000BF384687E7A8060020002002407E
:10300000F0B585B004460E460527A4F100602F49AF
:1030100009884FF6FF72914202D14FF4002103E07C
:103020002A4909880905890A884202D3012005B086
:10303000F0BD06F2FF7004900498C00A04900020CE
:103040000190224800884FF6FF71884202D14FF468
:10305000002003E01D4800880005800A401E204033
:10306000C00A0390194800884FF6FF71884202D1C8
:103070004FF4002003E0154800880005800A401E38
:103080002040124909884FF6FF72914202D14FF455
:10309000002103E00D4909880905890AB0FBF1F018
:1030A000029000BF00F082F8694601A8FFF720FFF8
:1030B000054600F00DF835B10098401C18B1381ED7
:1030C000A7F10107EED12846B1E70000E075FF1F28
:1030D0000348406940F000400149486100207047C2
:1030E000002002402DE9F04704460F4615461E46D3
:1030F0004FF001084FF0000900BF2A48007801286E
:1031000002D10220BDE8F08701202649087000BFE7
:103110004CF25030FEF738FD8046B8F1000F39D13F
:103120000020204948602048006800F4806048B1D1
:103130001D48006820F480601B490860022019497E
:10314000087702E00020174908773CB92A46334641
:103150003846FEF74BFC4FF001090BE0012C01D083
:10316000022C07D129463846FEF74CFC022C01D12F
:103170004FF480294CF25030FEF706FD8046B9F13D
:10318000000F05D00848406920EA09000649486157
:10319000FEF7C2FB00BF00200249087000BF404696
:1031A000B0E70000A8060020002002400748406960
:1031B00000F0004028B1064804498860054888604E
:1031C00001E0012070470020FCE7000000200240E1
:1031D00023016745AB89EFCD2DE9FC4706460F4635
:1031E00015460024A146002100910191E91705EB45
:1031F0005171C910A5EBC10119B1012000EBE50027
:10320000C500FFF7D3FF8046B8F1000F02D040465B
:1032100000F05EB84AE0301900F0070080B9082DD0
:103220000EDB3819016800914068019031190020C7
:10323000DDE90023FFF756FF8046083D083431E002
:10324000301900F0070098B9042D11D13019016828
:1032500000914068019038190068009031190020F1
:10326000DDE90023FFF73EFF80462D1F241D19E0F6
:10327000301900F0030098B9301950F8041C00917F
:10328000006801903819006801903019011F002072
:10329000DDE90023FFF726FF80462D1F241D01E0F6
:1032A0004FF00108B8F1000F00D001E0002DB2DCB2
:1032B00000BFFFF70DFF484600F072FE03E010F07C
:1032C000D3FCA9F10109B9F1000FF8D140469FE7FD
:1032D0000CBCBDE8F0870000F0B50B4600210022D1
:1032E000002475E001258D4005EA0302002A6ED016
:1032F00005684F000326BE4035430560CE0800F147
:10330000200555F826504E07F70E0F26BE40B54350
:10331000CF0800F1200646F8275085684F000326A5
:10332000BE40B5438560466801258D40AE4346608A
:10333000C5684F000326BE40B543C560274D8E08C3
:1033400055F826408D072E0F0F25B5402C40B0F1C3
:10335000904F01D1002514E0214DA84201D1012553
:103360000FE0204DA84201D102250AE01E4DA842DF
:1033700001D1032505E01D4DA84201D1042500E03F
:1033800007258E07360FB540A54220D18D072E0F99
:103390000F2505FA06F4114D8E0855F82660A64350
:1033A0008F0845F82760124D2D689543104E356003
:1033B000351D2D689543361D3560351D2D689543A7
:1033C000361D3560351D2D689543361D3560491C09
:1033D00023FA01F5002D85D1F0BD00000800014061
:1033E0000004004800080048000C00480010004895
:1033F0000004014038B5044600200090042C0BD195
:1034000001201B4908701B48006830B36946194801
:1034100000680FF07BFD20E0B4F5807F0AD108F052
:103420002BFC15480068C0B16946134800680FF0CE
:103430006DFD12E0B4F5005F0FD101200F49086067
:103440000F480068401C0E4908600E48006820B113
:1034500069460C4800680FF059FD009838B14FF0EC
:10346000805009490860BFF34F8FBFF36F8F38BD9D
:10347000A00200207C0200201C0300206404002025
:10348000080100201401002004ED00E010B50446FE
:1034900004480068204020B1024804602046FFF73D
:1034A000A9FF10BD1404014078B503460022002492
:1034B0000020CBE0012696400D6805EA0604002CAA
:1034C00072D04D68022D02D04D68122D13D1D6084E
:1034D00003F1200555F826005507EE0E0F25B540DF
:1034E000A8435607F60E0D69B5402843D60803F1E8
:1034F000200545F82600186856000325B540A84366
:103500000D7905F003055600B540284318604D6855
:10351000012D08D04D68022D05D04D68112D02D027
:103520004D68122D13D1986856000325B540A84365
:103530005600CD68B54028439860586801259540ED
:10354000A8430D79C5F30015954028435860D86805
:1035500056000325B540A84356008D68B540284362
:10356000D8604D6805F08055B5F1805F6DD100BF22
:10357000394D2D6E45F00105374E356635462D6EB9
:1035800005F00105009500BF00BF4FEAB63596086B
:1035900055F8260095072E0F0F25B540A843B3F127
:1035A000904F02D1002515E04FE02C4DAB4201D1E8
:1035B00001250FE02A4DAB4201D102250AE0294D39
:1035C000AB4201D1032505E0274DAB4201D10425D3
:1035D00000E007259607360FB5402843234D96088F
:1035E00045F82600224D2868A0434D6805F4803533
:1035F000B5F5803F00D120431D4D28602D1D286862
:10360000A0434D6805F40035B5F5003F00D12043D7
:10361000174D2D1D28602D1D2868A0434D6805F409
:103620008015B5F5801F00D12043114D0835286065
:103630002D1D2868A0434D6805F40015B5F5001F41
:1036400000D120430A4D0C352860521C0D68D5402E
:10365000002D7FF42FAF78BD001002400004004819
:1036600000080048000C0048001000480800014015
:1036700000040140024613690B400BB1012000E039
:10368000002070470AB1816100E08162704700004C
:1036900001480068704700006C000020024692F864
:1036A000410020282DD100BF92F84000012801D10F
:1036B00002207047012082F8400000BF242082F8D9
:1036C00041001068006820F001001368186010685D
:1036D000006820F480501368186010680068084380
:1036E000136818601068006840F0010013681860E3
:1036F000202082F8410000BF002082F8400000BF77
:10370000D7E70220D5E710B502460B46002192F814
:10371000410020282AD100BF92F84000012801D1A1
:10372000022010BD012082F8400000BF242082F852
:1037300041001068006820F00100146820601068E3
:10374000016821F4706141EA03211068016010688A
:10375000006840F0010014682060202082F84100D9
:1037600000BF002082F8400000BFDAE70220D8E75F
:1037700008B500BF0949096E41F00101074A116609
:103780001146096E01F00101009100BF00BF04491C
:1037900049680143024A516008BD00000010024020
:1037A00000000140014691F84100704710B5044601
:1037B0000CB9012010BD94F8410028B9002084F80C
:1037C0004000204600F080FB242084F8410020685F
:1037D000006820F0010021680860606820F07060D7
:1037E000216808612068806820F4004021688860B2
:1037F000E068012805D1A06840F400402168886095
:1038000004E0A06840F4044021688860E068022871
:1038100002D180022168486020684068134908434B
:10382000216848602068C06820F400402168C860B2
:10383000D4E904010843A16940EA01202168C86075
:10384000D4E907010843216808602068006840F057
:1038500001002168086000206064202084F8410095
:103860000020206384F8420000BFA3E7008000022C
:103870002DE9FC4104460F4690461D4600260020D7
:10388000019094F84100202870D120688069C0F32D
:10389000C03010B10220BDE8FC8100BF94F84000A8
:1038A000012801D10220F6E7012084F8400000BF82
:1038B000242084F841000020606400BFE0680128F3
:1038C00006D1C7F3090040F4005040F0007003E057
:1038D000C7F3090040F4205021684860FFF7D8FE84
:1038E000064611E0681C78B125B1FFF7D1FE801BB8
:1038F000A84209D9202084F8410000BF002084F8A4
:10390000400000BF0320C6E720688069C0F3401074
:1039100040B920688069C0F3001018B994F84100DC
:10392000A028DFD120688069C0F30010A0B92B4621
:10393000002220212046009603F088F808B10320D9
:10394000A9E720202168C86184F8410000BF002059
:1039500084F8400000BF9EE72B460022202120462D
:10396000009603F073F810B1032094E72AE01020CA
:103970002168C86120202168C8610198411C01911B
:10398000404512D12068406840F48040216848607A
:103990002B46002220212046009603F057F808B15C
:1039A000032078E720202168C8610198404585D32D
:1039B000202084F8410000BF002084F8400000BFB0
:1039C000032068E7022066E72DE9F84304468946AC
:1039D00016461F46DDF82080002594F84100202877
:1039E00078D100BF94F84000012802D10220BDE840
:1039F000F883012084F8400000BFFFF749FE054628
:103A000019230122D1032046009503F01FF808B1C5
:103A10000320ECE7222084F84100102084F84200C3
:103A200000206064666267856063608DFF280CD942
:103A3000FF2020854148009094F828204FF08073A3
:103A40004946204602F0E8FF0BE0608D20853B48A8
:103A5000009094F828204FF000734946204602F069
:103A6000DBFF44E02A464146204603F01BF830B114
:103A7000606C042801D10120B9E70320B7E7206872
:103A8000406AC1B2626A501C60621170208D401E93
:103A90002085608D401E6085208D40BB608D30B3D9
:103AA0004346002280212046009502F0CFFF08B156
:103AB00003209CE7608DFF280DD9FF202085002082
:103AC000009094F828204FF080734946204602F079
:103AD000A3FF0CE02FE0608D20850020009094F87B
:103AE00028204FF000734946204602F095FF608D74
:103AF0000028B7D12A464146204603F023F830B1CA
:103B0000606C042801D1012071E703206FE72020B9
:103B10002168C861206840680949084021684860F8
:103B2000202084F84100002084F8420000BF84F87F
:103B3000400000BF5BE7022059E70000002400803E
:103B400000E800FE2DE9FC5F0446894692469B464C
:103B5000DDE90C780E9E002594F8410020287DD1E7
:103B600017B1B8F1000F02D1012000F0C9B800BFB1
:103B700094F84000012801D10220F6E7012084F8E2
:103B8000400000BFFFF784FD054619230122D10341
:103B90002046009502F05AFF08B10320E5E72220F5
:103BA00084F84100402084F842000020606467628D
:103BB000A4F82A8060635B46524649462046CDE918
:103BC000006502F099FE80B1606C042806D100BF48
:103BD000002084F8400000BF0120C6E700BF00209D
:103BE00084F8400000BF0320BFE7608DFF280CD998
:103BF000FF2020854048009094F828204FF08073E3
:103C00004946204602F008FF0BE0608D20853A48C7
:103C1000009094F828204FF000734946204602F0A7
:103C2000FBFE00BF3346002204212046009502F02F
:103C30000DFF08B1032098E72068406AC1B2626AAC
:103C4000501C60621170208D401E2085608D401ECA
:103C50006085208D48BB608D38B300E049E0334675
:103C6000002280212046009502F0F0FE08B10320DA
:103C70007BE7608DFF280CD9FF2020850020009075
:103C800094F828204FF080734946204602F0C4FE85
:103C90000BE0608D20850020009094F828204FF0E4
:103CA00000734946204602F0B7FE608D0028B9D166
:103CB0002A463146204602F045FF30B1606C0428A8
:103CC00001D1012051E703204FE720202168C8617E
:103CD000206840680949084021684860202084F82D
:103CE0004100002084F8420000BF84F8400000BF7B
:103CF0003BE7022039E700000024008000E800FED6
:103D00003CBCBDE8C09F00002DE9FC5F044689462D
:103D100092469B46DDE90C780E9E002594F8410002
:103D200020286ED117B1B8F1000F02D1012000F0A8
:103D3000C7B800BF94F84000012801D10220F6E77F
:103D4000012084F8400000BFFFF7A2FC05461923BC
:103D50000122D1032046009502F078FE08B103202D
:103D6000E5E7212084F84100402084F8420000204B
:103D700060646762A4F82A8060635B4652464946E5
:103D80002046CDE9006502F0FFFD80B1606C04289B
:103D900006D100BF002084F8400000BF0120C6E724
:103DA00000BF002084F8400000BF0320BFE7608D03
:103DB000FF280CD9FF2020850020009094F82820AF
:103DC0004FF080734946204602F026FE0BE0608DDE
:103DD00020850020009094F828204FF00073494679
:103DE000204602F019FE00BF2A463146204602F066
:103DF000D4FE38B1606C042801D1012097E703207C
:103E000095E759E0616A481C606208782168886219
:103E1000608D401E6085208D401E2085208D38BB22
:103E2000608D28B33346002280212046009502F0A1
:103E30000DFE08B103207AE7608DFF280CD9FF2022
:103E400020850020009094F828204FF08073494688
:103E5000204602F0E1FD0BE0608D208500200090FF
:103E600094F828204FF000734946204602F0D4FD14
:103E7000608D0028B8D12A463146204602F062FE05
:103E800030B1606C042801D1012050E703204EE7D7
:103E900020202168C86120684068084908402168DE
:103EA0004860202084F84100002084F8420000BFD0
:103EB00084F8400000BF3AE7022038E700E800FE3F
:103EC0003CBCBDE8C09F000010B586B00446114957
:103ED000206888421CD14FF440700190122002905B
:103EE00001200390032004900420059001A90A48B2
:103EF000FFF7DAFA00BF0948806D40F40010074967
:103F000088650846806D00F40010009000BF00BF77
:103F100006B010BD005400400004004800100240EC
:103F200070B504460CB9012070BD4CF6CC40216838
:103F3000086045F2555021680860D4E900104860D7
:103F40002168A0688860FFF7A3FB054606E0FFF73D
:103F50009FFB401B302801D90320E5E72068C0689B
:103F60000028F4D120680169E068814203D021680B
:103F7000E068086103E04AF6AA2021680860002092
:103F8000D2E701464AF6AA200A681060002070476E
:103F900002480068401C0149086070476C0000201E
:103FA000024909680144014A116070476C00002011
:103FB00010B50848006840F4807006490860032086
:103FC00000F0B6F80F2000F007F800F019F8002014
:103FD00010BD00000020024070B50446074800688C
:103FE0004FF47A71B0FBF1F5284602F063FA002233
:103FF0002146501E00F05BF8002070BDCC0200206E
:1040000008B500BF2248006E40F001002049086654
:104010000846006E00F00100009000BF00BF00BF26
:104020000846806D40F0805088650846806D00F03D
:104030008050009000BF00BF032000F079F80022FC
:1040400011466FF00B0000F032F8002211466FF0BD
:104050000A0000F02CF8002211466FF0090000F071
:1040600026F800221146501F00F021F800221146C8
:10407000101F00F01CF800220F21901E00F017F80E
:1040800000220F21501E00F012F8FEF7A7FD08BD18
:104090000010024000BF00F01F02012191404209C0
:1040A000920002F1E022C2F8001100BF70472DE932
:1040B000F05F80460D461646002706F0C1FE074613
:1040C00039462A46334601F00700C0F1070ABAF123
:1040D000040F02D94FF0040A01E0C0F1070AD146EB
:1040E00000F1040ABAF1070F02D24FF0000A01E012
:1040F000A0F1030AD4464FF0010A0AFA09FAAAF11C
:10410000010A0AEA020A0AFA0CFA4FF0010B0BFA4A
:104110000CFBABF1010B0BEA030B4AEA0B04214643
:10412000404606F095FE00F000B830BCBDE8C09FE8
:1041300000BF00F00702064B19684FF6FF03194055
:10414000044B0B4343EA0221014B196000BF704747
:104150000CED00E00000FA0500BF00BF00BF00BF8B
:1041600000BFBFF34F8F00BF00BF00BF094800680A
:1041700000F4E06008490843001D0649086000BFDC
:1041800000BF00BFBFF34F8F00BF00BF00BF00BF25
:1041900000BFFDE70CED00E00000FA05024600213B
:1041A000B2F5007F29D11D48006800F4C060B0F569
:1041B000007F31D01948006820F4C06040F40070DE
:1041C000164B186016480068164BB0FBF3F032230C
:1041D00000FB03F100E0491E31B11048406900F4D2
:1041E0008060B0F5806FF6D00C48406900F48060C4
:1041F000B0F5806F10D1032070470848006800F4C4
:10420000C060B0F5806F07D00448006820F4C0603B
:1042100040F48060014B18600020EDE70070004022
:10422000CC02002040420F000D49096821F007012F
:10423000891C0B4A11600B49096841F00401094AC5
:104240001160012801D130BF02E040BF20BF20BF74
:104250000449096821F00401024A11607047000016
:104260000070004010ED00E00248006800F4C060FB
:1042700070470000007000400348006840F4807000
:104280000149086070470000007000402DE9F843C4
:104290000446002600270025A846208800F4006078
:1042A000B0F5006F26D1E06C68B1B0F5000F03D017
:1042B000B0F5400F0ED10CE0F748C06840F48030F4
:1042C000F549C86008E00021201D07F0E5F8054623
:1042D00002E001E0012500BF00BF55B9EE4888307B
:1042E000006820F44000E16C0843EB49C1F8880005
:1042F00000E0A846206800F40030B0F5003F74D11B
:104300004FF00009E448806D00F0805078B900BF9C
:10431000E148806D40F08050DF4988650846806D37
:1043200000F08050009000BF00BF4FF00109DB4853
:10433000006840F48070D9490860FFF7A9F9074682
:1043400006E0FFF7A5F9C01B022801D9032505E007
:10435000D248006800F480700028F2D000BF7DBB16
:10436000CD489030006800F44076CEB1606EB04227
:1043700016D0C9489030006820F44076C648D0F87E
:10438000900040F48030C449C1F890000846D0F84D
:10439000900020F48030C1F890000846C0F890608A
:1043A00006F00100A8B1FFF773F9074609E0FFF72F
:1043B0006FF9C01B41F28831884202D9032507E01A
:1043C00016E0B5489030006800F002000028EED0FA
:1043D00000BF5DB9B0489030006820F44070616E55
:1043E0000843AD49C1F8900003E00CE0A84600E0A6
:1043F000A846B9F1010F05D1A748806D20F0805083
:10440000A549886500BF207800F0010048B1A248A6
:104410008830006820F00300216A08439E49C1F8F3
:104420008800207800F00200022809D19A488830DC
:10443000006820F00C00616A08439749C1F88800C1
:10444000207800F00400042809D1934888300068DF
:1044500020F03000A16A08438F49C1F88800207815
:1044600000F00800082809D18B488830006820F047
:10447000C000E16A08438849C1F88800207800F04C
:104480002000202809D184488830006820F440604A
:10449000216B08438049C1F88800208800F400702F
:1044A000B0F5007F09D17C488830006820F44020B6
:1044B000616C08437849C1F88800208800F4806066
:1044C000B0F5806F09D174488830006820F440103E
:1044D000A16C08437049C1F88800207800F04000C2
:1044E000402809D16C488830006820F44050616B46
:1044F00008436949C1F88800207800F080008028CE
:1045000009D165488830006820F44040A16B084319
:104510006149C1F88800208800F48070B0F5807F80
:1045200009D15D488830006820F44030E16B0843D1
:104530005949C1F88800206800F48010B0F5801F48
:1045400009D155489C30006820F00300216C0843D5
:104550005149C1F89C00208800F40050B0F5005F7C
:104560001FD14D488830006820F04060216D08431D
:10457000494988310860206DB0F1006F06D1464886
:10458000C06840F480104449C8600AE0206DB0F172
:10459000806F06D10121201D06F07EFF054605B182
:1045A000A846206800F40020B0F5002F1FD13A483B
:1045B0008830006820F04060616D084336498831DA
:1045C0000860606DB0F1006F06D13348C06840F4F8
:1045D00080103149C8600AE0606DB0F1806F06D18B
:1045E0000121201D06F058FF054605B1A8462068A8
:1045F00000F48020B0F5802F1FD127488830006854
:1046000020F04060A16D0843234988310860A06D07
:10461000B0F1006F06D12048C06840F480101E49F8
:10462000C8600AE0A06DB0F1806F06D10121201DA5
:1046300006F032FF054605B1A846208800F4804008
:10464000B0F5804F14D114488830006820F04050F5
:10465000E16D0843104988310860E06DB0F1805F7A
:1046600006D10221201D06F017FF054605B1A84618
:10467000206800F48030B0F5803F09D106488830CA
:10468000006820F00040216E08430349C1F888000B
:104690004046BDE8F8830000001002400070004072
:1046A00070B504460D4600267048006800F007000B
:1046B000A8420ED26D48006820F0070028436B49DD
:1046C00008600846006800F00700A84201D00120F9
:1046D00070BD207800F00100002879D060680328C0
:1046E00006D16348006800F00070D8B90120EFE7F8
:1046F0006068022806D15E48006800F4003088B97E
:104700000120E5E7606830B95948006800F0020010
:1047100040B90120DCE75648006800F4806008B921
:104720000120D5E75248806820F003006168084303
:104730004F498860FEF7ACFF06466068032810D139
:1047400008E0FEF7A5FF801B41F28831884201D9BD
:104750000320BDE74648806800F00C000C28F0D12B
:1047600036E06068022810D108E0FEF791FF801B58
:1047700041F28831884201D90320A9E73C4880688A
:1047800000F00C000828F0D122E0606880B908E051
:10479000FEF77EFF801B41F28831884201D9032059
:1047A00096E73348806800F00C000028F0D10FE055
:1047B00008E0FEF76DFF801B41F28831884201D985
:1047C000032085E72A48806800F00C000428F0D117
:1047D000207800F00200022807D12548806820F0E8
:1047E000F000A1680843224988602048006800F072
:1047F0000700A8420ED91D48006820F00700284392
:104800001A4908600846006800F00700A84201D075
:1048100001205DE7207800F00400042807D1144847
:10482000806820F4E060E1680843114988602078DE
:1048300000F00800082808D10D48806820F4605076
:10484000216940EAC1000A49886000F03DF8084942
:104850008968C1F30311074A515CC84006490860E2
:104860000F20FFF7B9FB002032E7000000200240D4
:1048700000100240D8400108CC0200200148006826
:1048800070470000CC02002000B5FFF7F7FF044995
:104890008968C1F30221034A515CC84000BD000091
:1048A00000100240E840010800B5FFF7E7FF0449A7
:1048B0008968C1F3C221034A515CC84000BD0000B1
:1048C00000100240E8400108F0B500210023002458
:1048D0000225022200203B4EB66806F00C065EB1AF
:1048E000384EB66806F00C060C2E1ED1354EF66812
:1048F00006F00306012E18D1324E366806F008067F
:104900002EB9304E94363668C6F3032103E02D4E9F
:104910003668C6F303112C4E56F82110294EB6689E
:1049200006F00C0686B908460EE0264EB66806F07C
:104930000C06042E01D1254806E0224EB66806F08A
:104940000C06082E00D122481E4EB66806F00C0652
:104950000C2E36D11B4EF66806F00304194EF6688D
:10496000C6F30216721C012C19D0022C02D0032CA3
:1049700014D109E0154EB6FBF2F6124FFF68C7F3EB
:10498000062706FB07F313E0114EB6FBF2F60D4FB8
:10499000FF68C7F3062706FB07F309E000BFB1FB7A
:1049A000F2F6084FFF68C7F3062706FB07F300BFC0
:1049B00000BF044EF668C6F34166761C7500B3FB73
:1049C000F5F0F0BD00100240F04001080024F400B2
:1049D00000127A00F8B504460025207800F0100097
:1049E00010286ED1F848806800F00C00002869D1CA
:1049F000F548006800F0020018B1A06908B901206C
:104A0000F8BDF148216A006800F0080020B1EE48C6
:104A1000006800F0F00005E0EB489430006800F416
:104A20007060000981421FD9206A06F0FBFD08B1C1
:104A30000120E5E700BFE448006840F00800E249D3
:104A400008600846006820F0F000216A0843DE494B
:104A5000086000BF0846406820F47F40E16940EAF2
:104A60000120D94948601EE000BFD748006840F0E7
:104A70000800D54908600846006820F0F000216A67
:104A80000843D149086000BF0846406820F47F40D1
:104A9000E16940EA0120CC494860206A06F0C2FD85
:104AA00008B10120ACE7FFF70FFFC7498968C1F3E0
:104AB0000311C64A515CC840C54908600F20FFF782
:104AC0008BFA4AE0A06980B3BF48006840F001005B
:104AD000BD490860FEF7DCFD054606E0FEF7D8FD9F
:104AE000401B022801D903208AE7B748006800F07C
:104AF00002000028F2D000BFB348006840F0080070
:104B0000B14908600846006820F0F000216A0843B7
:104B1000AD49086000BF0846406820F47F40E16965
:104B200040EA0120A849486017E0FFE7A64800686E
:104B300020F00100A4490860FEF7AAFD054606E042
:104B4000FEF7A6FD401B022801D9032058E79E4826
:104B5000006800F002000028F2D1207800F0010087
:104B6000002868D09848806800F00C0008280BD016
:104B70009548806800F00C000C280ED19248C0685F
:104B800000F00300032808D18F48006800F40030CB
:104B900088B3606878BB012032E700BF6068B0F579
:104BA000803F06D18848006840F48030864908601C
:104BB0001AE06068B0F5A02F0BD18348006840F47C
:104BC0008020814908600846006840F48030086011
:104BD0000AE07D48006820F480307B490860084680
:104BE000006820F48020086000BF606890B1FEF784
:104BF0004FFD054607E01EE0FEF74AFD401B642816
:104C000001D90320FCE67048006800F40030002859
:104C1000F2D010E0FEF73CFD054606E0FEF738FD59
:104C2000401B642801D90320EAE66748006800F4C5
:104C300000300028F2D1207800F0020002285ED176
:104C40006148806800F00C0004280BD05E48806842
:104C500000F00C000C2818D15B48C06800F003007D
:104C6000022812D15848006800F4806018B1E0684A
:104C700008B90120C4E65448406820F0FE40217C79
:104C800040EA01605049486039E0E06800B34E48AE
:104C9000006840F480704C490860FEF7F9FC054656
:104CA00006E0FEF7F5FC401B022801D90320A7E629
:104CB0004548006800F480600028F2D0424840680F
:104CC00020F0FE40217C40EA01603F49486016E048
:104CD0003D48006820F480703B490860FEF7D8FC2E
:104CE000054606E0FEF7D4FC401B022801D903204C
:104CF00086E63548006800F480600028F2D120780C
:104D000000F00800082836D16069D0B12E489430F0
:104D1000006840F001002C49C1F89400FEF7B8FC8F
:104D2000054606E0FEF7B4FC401B022801D903202B
:104D300066E625489430006800F002000028F1D0B3
:104D400019E021489430006820F001001E49C1F8A4
:104D50009400FEF79DFC054606E0FEF799FC401B1B
:104D6000022801D903204BE617489430006800F070
:104D700002000028F1D1207800F0040004286ED150
:104D800000261148806D00F0805070B900BF0E48B9
:104D9000806D40F080500C4988650846806D00F0B9
:104DA0008050009000BF00BF01260A48006800F450
:104DB0008070F0B90748006840F4807005490860C9
:104DC000FEF766FC05460EE000100240D8400108E0
:104DD000CC02002000700040FEF75AFC401B022865
:104DE00001D903200CE69D48006800F4807000287B
:104DF000F2D000BFA068012808D19948006840F0AF
:104E0000010097499039C1F8900021E0A068052879
:104E10000FD19348006840F0040091499039C1F8DF
:104E200090000846D0F8900040F00100C1F89000D2
:104E30000EE08B48006820F0010089499039C1F8E4
:104E400090000846D0F8900020F00400C1F89000CF
:104E500000BFA068A0B1FEF71BFC054609E02DE0ED
:104E6000FEF716FC401B41F28831884201D903202D
:104E7000C6E57B48006800F002000028F0D012E090
:104E8000FEF706FC054608E0FEF702FC401B41F277
:104E90008831884201D90320B2E57148006800F0EA
:104EA00002000028F0D1012E07D16D489038806DA6
:104EB00020F080506A499039886500BF207800F062
:104EC0002000202838D1606AD8B1654808300068D1
:104ED00040F0010062499039C1F89800FEF7D8FB14
:104EE000054606E0FEF7D4FB401B022801D903204B
:104EF00086E55B480830006800F002000028F1D029
:104F00001AE057480830006820F0010054499039F1
:104F1000C1F89800FEF7BCFB054606E0FEF7B8FBBB
:104F2000401B022801D903206AE54D48083000687B
:104F300000F002000028F1D1A06AE8B34848903898
:104F4000806800F00C000C2874D0A06A022853D1AD
:104F500043489038006820F08070414990390860DB
:104F6000FEF796FB054606E0FEF792FB401B022883
:104F700001D9032044E53A489038006800F00070F9
:104F80000028F1D1206B401E0101606B41EA002036
:104F9000E16A0843A18F0122C2EB510140EA41516D
:104FA0004020005DC2EB500041EA40613820005DC6
:104FB00041EAC0602A4900E04EE09039C8600846E6
:104FC000006840F0807008600846C06840F080705B
:104FD000C860FEF75DFB054606E0FEF759FB401B87
:104FE000022801D903200BE51D489038006800F025
:104FF00000700028F1D02FE019489038006820F0A8
:1050000080701749903908600846006800F0006019
:1050100020B90846C06820F00300C86010489038E6
:10502000C068104908400E499039C860FEF730FB4F
:10503000054607E00EE0FEF72BFB401B022801D9D6
:105040000320DDE406489038006800F00070002876
:10505000F1D101E00120D3E40020D1E40070004050
:1050600090100240FFFFEEFE7047024600231068DA
:1050700000F1500303EB81031868704710B500235B
:10508000046804F1500303EB81031A6010BD2DE99D
:10509000F04104460D4616461F464FF0000800BF7B
:1050A00094F82000012802D10220BDE8F0810120FF
:1050B00084F8200000BF022084F8210000BFCA202D
:1050C0002168486253202168486200BF2068C06898
:1050D00000F48030F8B1FEF7DBFA804615E0FEF709
:1050E000D7FAA0EB0800B0F57A7F0ED900BFFF20F9
:1050F0002168486200BF032084F8210000BF00201F
:1051000084F8200000BF0320CFE72068C06800F4C7
:1051100080300028E3D145EA060038432168C8639F
:1051200000BFFF202168486200BF012084F82100F1
:1051300000BF002084F8200000BF00BFB5E7704723
:1051400010B504464FF480202349086029E0206808
:105150008068C0F3003078B12068C068C0F30020D8
:1051600050B12068C06800F0800060F4C070216811
:10517000C8602046FFF7E3FF20688068C0F3403036
:1051800078B12068C068C0F3402050B12068C06882
:1051900000F0800060F420702168C8602046FFF7AE
:1051A00063FF20688068C0F3003028B12068C068C1
:1051B000C0F300200028CAD120688068C0F34030C6
:1051C00028B12068C068C0F340200028BFD101206A
:1051D00084F8210010BD00001404014070B505469C
:1051E0000B4616460024286840680E4900EA010470
:1051F000200CD870C4F30420587004F03F0098705D
:10520000C4F3423018705EB9D87806F063FAD870EB
:10521000587806F05FFA5870987806F05BFA987044
:10522000002070BD3FFFFF0070B504460B461646D8
:1052300000252068806A586020680069C0F30E006D
:105240009860206800680F4900EA0105C5F3054031
:105250001870C5F30620587005F07F00987005F4AB
:105260008000000CD8705EB9187806F033FA187018
:10527000587806F02FFA5870987806F02BFA987044
:10528000002070BD7F7F7F0010B504460CB901205F
:1052900010BD94F8210028B9002084F82000204691
:1052A00000F066F8022084F8210000BFCA202168BF
:1052B000486253202168486200BF204606F022FA67
:1052C00048B100BFFF202168486200BF042084F875
:1052D00021000120DCE7206880682449084021681B
:1052E0008860216960680843A1690843216889686A
:1052F0000843216888602168E068086120680169C6
:10530000208941EA0040216808612068C06820F0D7
:1053100080002168C8602068806800F0200068B9BB
:10532000204600F09DFA48B100BFFF202168486286
:1053300000BF042084F821000120A9E72068C06C88
:1053400020F003002168C8646169E06908432168AE
:10535000C96C08432168C86400BFFF202168486207
:1053600000BF012084F82100002091E7BFFF8FFFDC
:1053700010B504460D492068884215D100231A460D
:1053800019460B48FFF783FE0A48006840F40040C6
:1053900008499039C1F89000002205212920FEF724
:1053A00086FE2920FEF776FE10BD00000028004092
:1053B0001C090020901002402DE9F04704460D46DC
:1053C00016460027B846B94600BF94F820000128C9
:1053D00002D10220BDE8F087012084F8200000BF40
:1053E000022084F8210046BB2068806800F040005D
:1053F00000B102E00020E87000BFE86900B900E0F9
:1054000000BF287806F071F90304687806F06DF99A
:1054100043EA0023A87806F068F90343E87843EAF2
:10542000004395F8200006F060F943EA0060E9695E
:105430000843696940EA01082DE02068806800F0AF
:10544000400020B1287806F045F9804602E00020AF
:10545000E87000BFE86928B995F8200006F03AF92D
:10546000804605E095F8200006F034F9804600BF3C
:1054700028780004697840EA0120A9780843E9788F
:1054800040EA014095F8201040EA0160E9690843CC
:10549000696940EA0108A969686840EA010900BF32
:1054A000CA202168486253202168486200BF686AA8
:1054B000B0F5807F3FD12068806820F4807021683B
:1054C00088602068C06800F0800060F4C0702168C7
:1054D000C860FEF7DDF8074614E0FEF7D9F8C01BF8
:1054E000B0F57A7F0ED900BFFF202168486200BF67
:1054F000032084F8210000BF002084F8200000BFB2
:10550000032067E72068C06800F001000028E4D0AD
:105510002068C0F81C802068C0F84490206880682B
:1055200040F48070216888602068806840F4805072
:10553000216888603EE02068806820F4007021685F
:1055400088602068C06800F0800060F420702168E6
:10555000C860FEF79DF8074614E0FEF799F8C01BF7
:10556000B0F57A7F0ED900BFFF202168486200BFE6
:10557000032084F8210000BF002084F8200000BF31
:10558000032027E72068C068C0F340000028E4D06B
:105590002068C0F820802068C0F8489020688068A3
:1055A00040F40070216888602068806840F40050F2
:1055B000216888600E48006840F480200C4908602B
:1055C0000B480830006840F4802009490831086021
:1055D00000BFFF202168486200BF012084F821003D
:1055E00000BF002084F8200000BF00BFF2E60000EA
:1055F000000401402DE9F04104460D4616460027FF
:1056000000BF94F82000012802D10220BDE8F081FB
:10561000012084F8200000BF022084F821004EB948
:10562000687800F01000102804D1687800F0EF00CE
:105630000A30687086B9E87806F057F8030468788D
:1056400006F053F843EA0023A87806F04EF8034327
:10565000287843EA403711E0687806F03BF80746BF
:10566000A87806F037F80746E8780004697840EA39
:105670000120A9780843297840EA413700BFCA20B1
:105680002168486253202168486200BF204606F026
:1056900039F870B100BFFF202168486200BF0420C4
:1056A00084F8210000BF002084F8200000BF012002
:1056B000ACE718483840216848602068C06820F08E
:1056C00080002168C8602068806800F0200090B9E0
:1056D000204600F0C5F870B100BFFF202168486285
:1056E00000BF042084F8210000BF002084F82000BF
:1056F00000BF01208AE700BFFF202168486200BF89
:10570000012084F8210000BF002084F8200000BFA1
:1057100000BF7BE73FFFFF002DE9F04104460D4647
:105720001646002700BF94F82000012802D102206D
:10573000BDE8F081012084F8200000BF022084F839
:105740002100CEB92068806800F0400000B102E07E
:105750000020E87000BF287805F0C7FF03046878D0
:1057600005F0C3FF43EA0023A87805F0BEFF03431A
:10577000E87843EA004716E02068806800F04000BF
:1057800020B1287805F0A6FF074602E00020E87067
:1057900000BF28780004697840EA0120A97808430E
:1057A000E97840EA014700BFCA20216848625320D7
:1057B0002168486200BF204605F0A4FF70B100BF19
:1057C000FF202168486200BF042084F8210000BF48
:1057D000002084F8200000BF0120A9E71F483840BE
:1057E000216808602068806820F480202168886033
:1057F000D5E9030108432168896808432168886066
:105800002068C06820F080002168C8602068806837
:1058100000F0200090B9204600F022F870B100BFDF
:10582000FF202168486200BF042084F8210000BFE7
:10583000002084F8200000BF012079E700BFFF208E
:105840002168486200BF012084F8210000BF0020C9
:1058500084F8200000BF00BF6AE700007F7F7F0060
:1058600070B5044600252068C06820F0A0002168BB
:10587000C860FDF70DFF054607E0FDF709FF401B77
:10588000B0F57A7F01D9032070BD2068C06800F0B0
:1058900020000028F1D00020F6E74FF0E02000695A
:1058A00040F002004FF0E021086170477047014668
:1058B00091F85D00704770B504460CB9012070BDC9
:1058C000606A00B900BF0021A16294F85D0028B9A8
:1058D000002084F85C00204600F04EF8022084F896
:1058E0005D002068006820F0400021680860E068E2
:1058F000B0F5E06F01D9002501E04FF48055E06874
:10590000B0F5706F05D0E068B0F5E06F01D0002110
:10591000A162206B40B9E068B0F5E06F02D90221C6
:10592000216301E001212163D4E9010108432169D8
:10593000084361690843218B01F400710843E16960
:105940000843216A0843A16A0843216808600421CA
:10595000A06901EA1040616A0843616B0843E1688D
:10596000084328432168486000202066012084F80D
:105970005D000020A3E7000010B586B004465C4936
:105980002068884256D100BF5A48006E40F48050CB
:10599000584908660846006E00F48050009000BF29
:1059A00000BFE0200190022002900020039003201D
:1059B00004900520059001A94FF09040FDF774FD7B
:1059C0004D484E4908600120486010214B488160D5
:1059D0000021C16080210161002141618161C161BB
:1059E0000162FDF7A5F918B1992145A009F062FD02
:1059F00000BF42486065846200BF3F481438444994
:105A0000086001204860002141488160C160802118
:105A10000161002141618161C1610162FDF788F985
:105A200018B1AA2136A009F045FD00BF3848A0658D
:105A300084625BE037492068884257D100BF2D4817
:105A4000806D40F480402B4988650846806D00F4E5
:105A50008040009000BF00BF4FF4604001900220E2
:105A6000029000200390032004900520059001A9D6
:105A70002948FDF719FD20482830284908600120F1
:105A800048601021254881600021C16080210161AA
:105A9000002141618161C1610162FDF749F918B1DD
:105AA000D42117A009F006FD00BF1C486065846280
:105AB00000BF114814301A490860012048600021D5
:105AC00017488160C16080210161002141618161CD
:105AD000C1610162FDF72CF918B1E52108A009F0B8
